:020000040801F1
:10000000E0F6012055020108B16C0108495F0108C2
:10001000AD6C0108A5200108A9C801080000000076
:100020000000000000000000000000009D01010829
:100030006902010800000000F101010891C40108F3
:100040006F0201086F0201086F0201086F020108C8
:100050006F0201086F0201086F0201086F020108B8
:100060006F0201086F0201086F0201086F020108A8
:100070006F0201086F0201086F0201086F02010898
:100080006F0201086F0201086F0201086F02010888
:100090006F0201086F0201086F0201086F02010878
:1000A0006F0201086F0201086F02010849C70108C9
:1000B0006F0201086F0201086F0201086F02010858
:1000C0006F0201086F0201086F0201086F02010848
:1000D0006F0201086F0201086F02010841C80108A0
:1000E0006F0201086F0201086F0201086F02010828
:1000F0006F0201086F0201086F0201086F02010818
:100100006F0201086F0201086F0201086F02010807
:100110006F0201086F0201086F0201086F020108F7
:100120006F0201086F0201086F0201086F020108E7
:100130006F020108694E01086F0201086F02010891
:100140006F0201086F0201086F0201086F020108C7
:100150006F0201086F0201086F0201086F020108B7
:100160006F0201086F0201086F0201086F020108A7
:100170006F0201086F0201086F0201080000000011
:100180006F0201086F020108DFF80CD000F0F0FBED
:1001900000480047D9170208E0F601202A4B1968E9
:1001A0000868B0E8F04F80F30988BFF36F8F4FF015
:1001B000000080F3118870470000000006480068C6
:1001C000006880F3088862B661B6BFF34F8FBFF353
:1001D0006F8F00DF00BF00BF08ED00E0DFF80C000C
:1001E000016841F470010160704700BF88ED00E0D4
:1001F000EFF30980BFF36F8F134B1A681EF0100FD7
:1002000008BF20ED108A20E9F04F106008B44FF0CD
:10021000300080F31188BFF34F8FBFF36F8F1BF057
:10022000CDFC4FF0000080F3118808BC1968086805
:10023000B0E8F04F1EF0100F08BFB0EC108A80F34A
:100240000988BFF36F8F704764010020EFF30580CA
:10025000704700000648804706480047FEE7FEE773
:10026000FEE7FEE7FEE7FEE7FEE7FEE7FEE7FEE766
:10027000C5C401088901010810B5431A934209D287
:100280008318881803E010F8011D03F8011D521EA1
:10029000F9D210BD40EA01039B0703D009E008C969
:1002A000121F08C0042AFAD203E011F8013B00F83B
:1002B000013B521EF9D210BDD2B201E000F8012B71
:1002C000491EFBD270470022F6E710B513460A46D6
:1002D00004461946FFF7F0FF204610BD30B504462E
:1002E0000020034600E05B1C934203D2E05CCD5C3F
:1002F000401BF8D030BD034611F8012B00F8012B4C
:10030000002AF9D1184670472DE9FE4F804681EA50
:100310000300C00F0C46009021F0004123F000457F
:10032000B8EB0200A94105D24046214690461C4642
:100330000B46024623F00040104347D0270DC7F379
:100340000A00C3F30A510290401A019040286BDA68
:10035000C3F3130040F4801B0098924620B10023A1
:10036000D2EB030A63EB0B0B01985946C0F1400234
:10037000504600F038FA06460D4650465946019A56
:1003800000F050FA10EB08006141002487EA115296
:1003900084EAE7731A4340D0009A62B3019A012AB3
:1003A0004FEA075215DC001B61EB02014FF00042DF
:1003B00002EA0752CDE90042001C41F580113246A5
:1003C0002B4600F087FA03B0BDE8F08F4046214687
:1003D000F9E7001B61EB0201001C41F580130018D6
:1003E0005B412018A2F5001747EB030140EAD570E6
:1003F000B6196D4111E06D084FEA360645EAC07541
:100400004FEA0752001B61EB0201001C41F580110D
:1004100049084FEA30000019514132462B4603B0DB
:10042000BDE8F04F00F047BA0098012240000023D9
:10043000D0EB020263EBE073009821464FEAE074D0
:10044000B8EB000061EB0401E9E783F000435BE7F0
:1004500081F0004158E72DE9FE4F81EA030404F0E2
:10046000004421F0004100944FF0000B23F00043C2
:1004700050EA01045ED052EA03045BD0C3F30A548D
:10048000C1F30A552C44A4F2F3340194A0FB0254A6
:10049000C1F3130141F48011C3F3130343F4801338
:1004A00001FB024400FB034E840A970A44EA81548C
:1004B00047EA8357A4FB076802958D0A05FB078569
:1004C0004FEA932C04FB0C542705029D4FEA065873
:1004D00047EA1637B5EB08056EEB070C870E920E50
:1004E00047EA811742EA8312A7FB0201B6EB0B0130
:1004F00064EB00042B0D43EA0C335E1844EB1C50F4
:10050000DA465146E7FB0201C5F313044FEA0B3309
:1005100043EA14534FEA0432019C43EA0603A4F170
:100520000C040294009CCDE900B400F0D3F903B0B0
:10053000BDE8F08F00200146F9E72DE9F04D81EA92
:10054000030404F0004B21F0004514464FF0000A6C
:1005500023F0004150EA050220D054EA01021DD0E8
:10056000C5F30A570246C5F31303C1F31300C1F3E1
:100570000A5640F4801543F48013A7EB0608101BBD
:10058000D64608F2FD3873EB050002D308F10108E6
:1005900001E092185B41B8F1000F03DA0020014638
:1005A000BDE8F08D00204FF48011064684460EE031
:1005B000171B73EB050705D3121B63EB05030643FB
:1005C0004CEA010C49084FEA300092185B4150EAAE
:1005D0000107EDD152EA030012D082EA040083EA57
:1005E0000501084305D0101BAB4106D201220023B0
:1005F00006E000224FF0004302E06FF001025310CA
:100600001AEB06004CEB085110EB0A0041EB0B0112
:10061000BDE8F04D00F04FB90EB5C10F80EAE070B3
:100620000844CA07002140F233438DE80E000A4611
:100630000B4600F04FF903B000BD0EB540F2334158
:1006400002910021CDE900110A460B4600F042F963
:1006500003B000BD70B5C1F30A5201F0004500249B
:10066000C1F3130140F2FF3341F480119A4201DAE1
:10067000002070BD40F233439A42A2F2334203DCC1
:10068000524200F0BFF800E090402C43F1D04042CD
:1006900070BDC1F30A5210B5C1F3130140F2FF332C
:1006A00041F480119A4201DA002010BD40F2334338
:1006B0009A42A2F2334203DC524200F0A3F810BD8A
:1006C000904010BD00F0004230F000400AD0C10D53
:1006D00001F56071C0F3160042EA0151C2084007FB
:1006E00011437047002001467047000030B5041EDA
:1006F00071F1000404DB4FF00044404264EB01015F
:10070000141E73F1000405DB1C464FF000435242F7
:1007100063EB04038B4208BF824230BD30B5041E38
:1007200071F1000404DB4FF00044404264EB01012E
:10073000141E73F1000405DB1C464FF000435242C7
:1007400063EB0403994208BF904230BD01F00043BF
:1007500030B421F0004150EA010206D00A0DA2F5A2
:100760006072C1F31301002A02DC30BC0020704724
:10077000440F44EAC104C100E01830BC00EBC25091
:1007800000F062B82DE9F05F0546002092469B46D6
:1007900088460646814640241BE028464146474697
:1007A000224600F02FF853465A46C01A914110D302
:1007B00011461846224600F016F82D1A67EB01087C
:1007C0004F4622460120002100F00DF817EB0009EA
:1007D0004E41201EA4F10104DFDC484631462A4682
:1007E0004346BDE8F09F202A04DB203A00FA02F1DC
:1007F000002070479140C2F1200320FA03F319430F
:1008000090407047202A04DB203A21FA02F00021B0
:10081000704721FA02F3D040C2F120029140084310
:1008200019467047202A06DBCB17203A41FA02F01E
:1008300043EAE07306E041FA02F3D040C2F120023D
:1008400091400843194670470029A8BF7047401CD3
:10085000490008BF20F00100704710B4B0FA80FCD6
:1008600000FA0CF050EA010404BF10BC704749B113
:10087000CCF1200421FA04F411FA0CF118BF012183
:1008800021430843A3EB0C01CB1D4FEA00614FEA63
:10089000102042BF002010BC704700EBC350104432
:1008A0000029A4BF10BC7047401C490008BF20F0BD
:1008B000010010BC704710B5141E73F1000408DA73
:1008C000401C41F1000192185B411A4301D120F014
:1008D000010010BD2DE9F04D92469B4611B1B1FAD1
:1008E00081F202E0B0FA80F220329046FFF77BFFFF
:1008F00004460F4640EA0A0041EA0B0153465A46B5
:10090000084313D0114653EA010019D0C8F1400240
:100910005046FFF777FF05460E4650465946424679
:10092000FFF761FF084305D0012004E02046394667
:10093000BDE8F08D0020054346EAE0762C433743BE
:100940000A986305E40AA0EB08000022FD0A44EAC5
:1009500047540A3002D500200146E9E70105101985
:100960006941DDE9084500196941BDE8F04DA2E79C
:10097000064C074D06E0E06840F0010394E80700EC
:1009800098471034AC42F6D3FFF702FC54D002086B
:1009900084D0020870B58C1810F8015B15F00703BD
:1009A00001D110F8013B2A1106D110F8012B03E008
:1009B00010F8016B01F8016B5B1EF9D12B0705D410
:1009C0000023521E0DD401F8013BFAE710F8013B59
:1009D000CB1A921C03E013F8015B01F8015B521E75
:1009E000F9D5A142D8D3002070BD00002DE9F04117
:1009F000054600240026A04600224FF480413348DB
:100A00000EF0D4FC64201AF04CFD012291032F4813
:100A10000EF0CCFC05201AF044FD00224FF40041FA
:100A20002B480EF0C3FC05201AF03BFD00BF35E05B
:100A30002046E11704EB1171C1F30F1600220821C3
:100A400024480EF0B3FC142700BF381EA7F10101A3
:100A50008FB2FAD104211F480EF0ADFC804635F864
:100A600016004FF6FF7101EA400025F81600B8F1B4
:100A7000000F05D035F8160040F0010025F81600EB
:100A80000122082113480EF091FC142700BF381EE4
:100A9000A7F101018FB2FAD1601C84B2802CC7DBB0
:100AA000142400BF201EA4F101018CB2FAD101224E
:100AB000D10307480EF07AFC142400BF201EA4F1D5
:100AC00001018CB2FAD1BDE8F081000000180240AB
:100AD00000000240000C024010B5012211030C4836
:100AE0000EF064FC142400BF201EA4F101018CB29E
:100AF000FAD100224FF4805105480EF057FC14241F
:100B000000BF201EA4F101018CB2FAD110BD00007B
:100B10000008024070B50025002420E0144830F899
:100B20001400012819D1134830F8140098B911485D
:100B3000183030F8140070B90E480C3030F814003A
:100B400048B90C48243030F8140020B90948303036
:100B500030F8140008B1681C85B2601C84B2022C05
:100B6000DCDB002D02DD072000F014F870BD000072
:100B7000C45F0020906A002010B50AF0D1FF0BF08E
:100B8000FDF80AF073FF0BF09FF80BF099F9FFF7EF
:100B9000C1FF10BD70B505460024062D7DD007DCD1
:100BA0006DB1012D36D0022D54D0032D76D105E143
:100BB000072D74D00B2D73D0252DF7D19AE100208D
:100BC00004F058FE02200BF0B3F90020D24908804F
:100BD00003F082F90021D148C1677021FFF773FB50
:100BE0000220CF49A1F8B8050020A1F8BA05A1F864
:100BF000BC050A20A1F8BE05002081F8C00500212F
:100C0000C74880F8C1150020C54981F8C20505F024
:100C1000DBF87BE105F0DCFA0220C149A1F8B80558
:100C200003F05AF90021BD48C167BB48008820F095
:100C30000100401CB8490880B8484068022808D123
:100C40000121252001F0F2FA002003F0FDFA05F061
:100C500015FC5BE10121252001F0E8FA002003F0FA
:100C6000F3FAAE48406830B101282DD002284CD0AC
:100C7000032828D173E014201AF0DAFD05F074FD82
:100C80000446012C0DD1C8201AF0D2FD012003F03A
:100C9000DBFAC8201AF0CCFD11E09BE035E1CCE096
:100CA000F5E014201AF0C4FD012003F0CDFAFB207A
:100CB0009949A1F8C0000720FFF76CFF70BD002024
:100CC0009749A1F8BE0570E014201AF0B1FD05F0B7
:100CD0004BFD0446012C05D103F0B6FAC8201AF0EA
:100CE000A7FD0DE014201AF0A3FD012003F0ACFADB
:100CF000FB208949A1F8C0000720FFF74BFFDDE783
:100D000001208749A1F8BE054FE014201AF090FD9C
:100D100005F074FE0446012C0ED1C8201AF088FD9F
:100D2000002004F003FE05F097F8C8201AF080FDBB
:100D3000002003F089FA0DE014201AF079FD01205B
:100D400003F082FAFB207449A1F8C0000720FFF7E6
:100D500021FFB3E702207249A1F8BE0525E0142067
:100D60001AF066FD05F000FD0446012C09D1C820EB
:100D70001AF05EFD0121272001F058FA05F06CF809
:100D80000EE014201AF054FD0121272001F04EFA44
:100D9000FB206149A1F8C0000720FFF7FBFE8DE7AB
:100DA00003205F49A1F8BE0500BF00BF5A48008874
:100DB00020F00400001D58490880A7E002200BF035
:100DC000B7F803F089F85448008820F0040052492D
:100DD00008809BE002200BF0ABF804F0F5FF6420E4
:100DE0001AF026FD002003F02FFA14201AF020FD3F
:100DF0000BF024FA14201AF01BFD0121272001F02A
:100E000015FA14201AF014FD002004F033FD03F04D
:100E100063F805201AF00CFD3F48008820F004001C
:100E20003D49088070213D48FFF74DFA3A48008857
:100E300020F001003849088068E002200BF078F8C3
:100E400004F0C2FF64201AF0F3FC002003F0FCF968
:100E500014201AF0EDFC0BF0F1F914201AF0E8FC64
:100E60000121272001F0E2F914201AF0E1FC002012
:100E700004F000FD4FF4FA701AF0DAFC03F0D6F833
:100E80002548008820F00400234908803EE0022025
:100E90000BF04EF804F098FF64201AF0C9FC002013
:100EA00003F0D2F914201AF0C3FC0BF0C7F9142098
:100EB0001AF0BEFC0121272001F0B8F914201AF025
:100EC000B7FC002004F0D6FC03F006F805201AF069
:100ED000AFFC1148008820F004000F490880702101
:100EE0000E48FFF7F0F90C48008820F001000A498D
:100EF00008800BE0C8201AF09BFC0748B0F8C2003D
:100F0000401C0549A1F8C20000E000BF00BF034833
:100F100080F8805000BFD1E61C5F0020046A0020EA
:100F2000E45F002010B54FF4406013F0BDFE40F6C2
:100F3000014013F0B9FE40F6024013F0B5FE40F652
:100F4000034013F0B1FE40F6044013F0ADFE40F64E
:100F5000054013F0A9FE40F6064013F0A5FE01235C
:100F600000221946FE480EF02EFA0123032200212A
:100F7000FB480EF057FA022300220121F8480EF038
:100F800022FA022303220021F5480EF04BFA042333
:100F900000220121F2480EF016FA04230322002158
:100FA000EF480EF03FFA082300220121EC480EF032
:100FB0000AFA082303220021E9480EF033FA10232D
:100FC00000220121E6480EF0FEF910230322002141
:100FD000E3480EF027FA202300220121E0480EF01A
:100FE000F2F9202303220021DD480EF01BFA4023F2
:100FF00000220121DA480EF0E6F940230322002105
:10100000D7480EF00FFA802300220121D4480EF0B9
:10101000DAF9802303220021D1480EF003FA4FF4BD
:10102000807300220121CE480EF0CDF94FF4807379
:1010300003220021CA480EF0F5F94FF40073002294
:101040000121C7480EF0BFF94FF4007303220021BD
:10105000C3480EF0E7F94FF4806300220121C04835
:101060000EF0B1F94FF4806303220021BC480EF06A
:10107000D9F94FF4006300220121B9480EF0A3F919
:101080004FF4006303220021B5480EF0CBF94FF472
:10109000805300220121B2480EF095F94FF480539D
:1010A00003220021AE480EF0BDF94FF400430022A8
:1010B0000121AB480EF087F94FF4004303220021D1
:1010C000A7480EF0AFF900220121A5480EF06EF9F5
:1010D00000220221A2480EF069F900220421A04852
:1010E0000EF064F9002208219D480EF05FF90022FD
:1010F00010219B480EF05AF90022202198480EF04A
:1011000055F90022402196480EF050F90022802126
:1011100093480EF04BF900224FF4807190480EF086
:1011200045F900224FF400718D480EF03FF900227E
:101130004FF480618A480EF039F900224FF40061C3
:1011400087480EF033F900224FF4805184480EF0A6
:101150002DF900224FF4004181480EF027F90123B8
:10116000002219467F480EF02EF9012303220021A8
:101170007C480EF057F902230022012179480EF035
:1011800022F902230322002176480EF04BF90823AE
:101190000022012173480EF016F9082303220021D2
:1011A00070480EF03FF91023002201216D480EF027
:1011B0000AF91023032200216A480EF033F9202394
:1011C0000022012167480EF0FEF8202303220021AF
:1011D00064480EF027F940230022012161480EF0F7
:1011E000F2F84023032200215E480EF01BF9802311
:1011F000002201215B480EF0E6F880230322002143
:1012000058480EF00FF94FF4807300220121554821
:101210000EF0D9F84FF480730322002151480EF0EC
:1012200001F94FF40073002201214E480EF0CBF873
:101230004FF40073032200214A480EF0F3F84FF4F4
:1012400080630022012147480EF0BDF84FF480630F
:101250000322002143480EF0E5F84FF4006300221A
:10126000012140480EF0AFF84FF400630322002143
:101270003C480EF0D7F84FF4805300220121394842
:101280000EF0A1F84FF480530322002135480EF0F0
:10129000C9F84FF400530022012132480EF093F8B0
:1012A0004FF40053032200212E480EF0BBF84FF4F8
:1012B0008043002201212B480EF085F84FF4804333
:1012C0000322002127480EF0ADF84FF4004300221E
:1012D000012124480EF077F84FF400430322002147
:1012E00020480EF09FF8002201211E480EF05EF803
:1012F000002202211B480EF059F80022082119484B
:101300000EF054F80022102116480EF04FF800227B
:10131000202114480EF04AF80022402111480EF016
:1013200045F8002280210F480EF040F800224FF4CB
:1013300080710C480EF03AF800224FF40071094811
:101340000EF034F800224FF4806106480EF02EF8BB
:1013500000224FF4006103480EF028F8002203E059
:1013600000000240000402404FF48051FE480EF09D
:101370001DF800224FF40051FB480EF017F8002230
:101380004FF48041F8480EF011F800224FF400416C
:10139000F5480EF00BF8012300221946F3480EF031
:1013A00012F8012303220021F0480EF03BF802233B
:1013B00000220121ED480EF006F80223032200214D
:1013C000EA480EF02FF8082300220121E7480DF02B
:1013D000FAFF082303220021E4480EF023F810232B
:1013E00000220121E1480DF0EEFF1023032200212D
:1013F000DE480EF017F8202300220121DB480DF013
:10140000E2FF202303220021D8480EF00BF84023EE
:1014100000220121D5480DF0D6FF402303220021F0
:10142000D2480DF0FFFF802300220121CF480DF0AC
:10143000CAFF802303220021CC480DF0F3FF4FF4B4
:10144000807300220121C9480DF0BDFF4FF4807365
:1014500003220021C5480DF0E5FF4FF40073002280
:101460000121C2480DF0AFFF4FF4007303220021A9
:10147000BE480DF0D7FF4FF4806300220121BB4826
:101480000DF0A1FF4FF4806303220021B7480DF057
:10149000C9FF4FF4006300220121B4480DF093FF0F
:1014A0004FF4006303220021B0480DF0BBFF4FF45E
:1014B000805300220121AD480DF085FF4FF4805389
:1014C00003220021A9480DF0ADFF4FF40053002284
:1014D0000121A6480DF077FF4FF4005303220021AD
:1014E000A2480DF09FFF4FF48043002201219F4846
:1014F0000DF069FF4FF48043032200219B480DF05B
:1015000091FF4FF400430022012198480DF05BFF4A
:101510004FF400430322002194480DF083FF002282
:10152000012192480DF042FF002202218F480DF068
:101530003DFF002208218D480DF038FF00221021C8
:101540008A480DF033FF0022202188480DF02EFF3D
:101550000022402185480DF029FF00228021834888
:101560000DF024FF00224FF4807180480DF01EFF23
:1015700000224FF400717D480DF018FF00224FF457
:1015800080617A480DF012FF00224FF40061774825
:101590000DF00CFF00224FF4805174480DF006FF4F
:1015A00000224FF4005171480DF000FF00224FF46B
:1015B00080416E480DF0FAFE00224FF400416B4866
:1015C0000DF0F4FE01230022194669480DF0FBFEE0
:1015D00001230322002166480DF024FF022300228C
:1015E000012163480DF0EFFE022303220021604831
:1015F0000DF018FF0423002201215D480DF0E3FEE9
:101600000423032200215A480DF00CFF0823002276
:10161000012157480DF0D7FE08230322002154482A
:101620000DF000FF10230022012151480DF0CBFEE8
:101630001023032200214E480DF0F4FE2023002247
:1016400001214B480DF0BFFE202303220021484812
:101650000DF0E8FE40230022012145480DF0B3FEC5
:1016600040230322002142480DF0DCFE80230022AB
:1016700001213F480DF0A7FE8023032200213C48B2
:101680000DF0D0FE4FF480730022012138480DF098
:101690009AFE4FF480730322002135480DF0C2FEFC
:1016A0004FF400730022012131480DF08CFE4FF4FD
:1016B0000073032200212E480DF0B4FE4FF4806326
:1016C000002201212A480DF07EFE4FF480630322A0
:1016D000002127480DF0A6FE4FF4006300220121EF
:1016E00023480DF070FE4FF40063032200212048D0
:1016F0000DF098FE4FF48053002201211C480DF09C
:1017000062FE4FF480530322002119480DF08AFE37
:101710004FF400530022012115480DF054FE4FF400
:1017200000530322002112480DF07CFE4FF4804349
:10173000002201210E480DF046FE4FF480430322A3
:1017400000210B480DF06EFE4FF4004300220121F2
:1017500007480DF038FE4FF40043032200210448EF
:101760000DF060FE002205E0000402400008024087
:10177000000C02400121FE480DF018FE002202215B
:10178000FB480DF013FE00220421F9480DF00EFE77
:1017900000220821F6480DF009FE00221021F4482D
:1017A0000DF004FE00222021F1480DF0FFFD002283
:1017B0004021EF480DF0FAFD00228021EC480DF0A9
:1017C000F5FD00224FF48071E9480DF0EFFD002295
:1017D0004FF40071E6480DF0E9FD00224FF48061FE
:1017E000E3480DF0E3FD00224FF40061E0480DF006
:1017F000DDFD00224FF48051DD480DF0D7FD0022C1
:101800004FF40051DA480DF0D1FD00224FF4804131
:10181000D7480DF0CBFD00224FF40041D4480DF025
:10182000C5FD012300221946D2480DF0CCFD01234D
:1018300003220021CF480DF0F5FD022300220121F3
:10184000CC480DF0C0FD022303220021C9480DF051
:10185000E9FD042300220121C6480DF0B4FD042354
:1018600003220021C3480DF0DDFD082300220121E1
:10187000C0480DF0A8FD082303220021BD480DF04B
:10188000D1FD102300220121BA480DF09CFD102348
:1018900003220021B7480DF0C5FD202300220121BD
:1018A000B4480DF090FD202303220021B1480DF033
:1018B000B9FD402300220121AE480DF084FD4023F4
:1018C00003220021AB480DF0ADFD80230022012151
:1018D000A8480DF078FD802303220021A5480DF0D3
:1018E000A1FD4FF4807300220121A2480DF06BFD91
:1018F0004FF48073032200219E480DF093FD4FF4B6
:101900000073002201219B480DF05DFD4FF4007330
:101910000322002197480DF085FD4FF480630022DB
:10192000012194480DF04FFD4FF480630322002104
:1019300090480DF077FD4FF40063002201218D489F
:101940000DF041FD4FF400630322002189480DF0A2
:1019500069FD4FF480530022012186480DF033FDCC
:101960004FF480530322002182480DF05BFD4FF4B9
:101970000053002201217F480DF025FD4FF4005354
:10198000032200217B480DF04DFD4FF480430022DF
:10199000012178480DF017FD4FF480430322002108
:1019A00074480DF03FFD4FF40043002201217148BF
:1019B0000DF009FD4FF40043032200216D480DF0A6
:1019C00031FD002201216B480DF0F0FC00220221C4
:1019D00068480DF0EBFC0022042166480DF0E6FC9F
:1019E0000022082163480DF0E1FC0022102161482B
:1019F0000DF0DCFC002220215E480DF0D7FC002217
:101A000040215C480DF0D2FC0022802159480DF0A5
:101A1000CDFC00224FF4807156480DF0C7FC002227
:101A20004FF4007153480DF0C1FC00224FF4806167
:101A300050480DF0BBFC00224FF400614D480DF002
:101A4000B5FC00224FF480514A480DF0AFFC002253
:101A50004FF4005147480DF0A9FC00224FF480419B
:101A600044480DF0A3FC00224FF4004141480DF022
:101A70009DFC0123002219463F480DF0A4FC0123E0
:101A8000032200213C480DF0CDFC0223002201215D
:101A900039480DF098FC02230322002136480DF04E
:101AA000C1FC04230022012133480DF08CFC0423E7
:101AB0000322002130480DF0B5FC0823002201214B
:101AC0002D480DF080FC0823032200212A480DF048
:101AD000A9FC10230022012127480DF074FC1023DB
:101AE0000322002124480DF09DFC20230022012127
:101AF00021480DF068FC2023032200211E480DF030
:101B000091FC4023002201211B480DF05CFC402386
:101B10000322002118480DF085FC802300220121BA
:101B200015480DF050FC80230322002112480DF0CF
:101B300079FC4FF48073002201210F480DF043FC23
:101B40004FF48073032200210B480DF06BFC4FF41F
:101B500000730022012108480DF035FC4FF400739A
:101B60000322002104480DF05DFC4FF4806305E082
:101B7000000C02400010024000140240002201212B
:101B8000E8480DF020FC4FF4806303220021E54873
:101B90000DF048FC4FF4006300220121E1480DF0F4
:101BA00012FC4FF4006303220021DE480DF03AFCE2
:101BB0004FF4805300220121DA480DF004FC4FF469
:101BC000805303220021D7480DF02CFC4FF4005322
:101BD00000220121D3480DF0F6FB4FF400530322FD
:101BE0000021D0480DF01EFC4FF48043002201215B
:101BF000CC480DF0E8FB4FF4804303220021C94894
:101C00000DF010FC4FF4004300220121C5480DF0F7
:101C1000DAFB4FF4004303220021C2480DF002FC1E
:101C200000220121BF480DF0C1FB00220221BD4866
:101C30000DF0BCFB00220421BA480DF0B7FB0022D6
:101C40000821B8480DF0B2FB00221021B5480DF074
:101C5000ADFB00222021B3480DF0A8FB002240215B
:101C6000B0480DF0A3FB00228021AE480DF09EFB92
:101C700000224FF48071AB480DF098FB00224FF426
:101C80000071A8480DF092FB00224FF48061A54836
:101C90000DF08CFB00224FF40061A2480DF086FB92
:101CA00000224FF480519F480DF080FB00224FF43A
:101CB00000519C480DF07AFB00224FF48041994876
:101CC0000DF074FB00224FF4004196480DF06EFBBE
:101CD00001230022194694480DF075FB01230322CD
:101CE000002191480DF09EFB0223002201218E4825
:101CF0000DF069FB0223032200218B480DF092FBBB
:101D000004230022012188480DF05DFB04230322F7
:101D1000002185480DF086FB08230022012182481E
:101D20000DF051FB0823032200217F480DF07AFBC0
:101D30001023002201217C480DF045FB10230322D3
:101D4000002179480DF06EFB202300220121764806
:101D50000DF039FB20230322002173480DF062FBB4
:101D600040230022012170480DF02DFB4023032267
:101D700000216D480DF056FB8023002201216A48A6
:101D80000DF021FB80230322002167480DF04AFB60
:101D90004FF480730022012163480DF014FB4FF4CF
:101DA00080730322002160480DF03CFB4FF4007368
:101DB000002201215C480DF006FB4FF40073032262
:101DC000002159480DF02EFB4FF4806300220121C1
:101DD00055480DF0F8FA4FF4806303220021524871
:101DE0000DF020FB4FF40063002201214E480DF05E
:101DF000EAFA4FF40063032200214B480DF012FB76
:101E00004FF480530022012147480DF0DCFA4FF4D3
:101E100080530322002144480DF004FB4FF400538B
:101E20000022012140480DF0CEFA4FF40053032266
:101E300000213D480DF0F6FA4FF4804300220121C5
:101E400039480DF0C0FA4FF4804303220021364890
:101E50000DF0E8FA4FF400430022012132480DF062
:101E6000B2FA4FF40043032200212F480DF0DAFAB2
:101E7000002201212C480DF099FA002202212A4863
:101E80000DF094FA0022042127480DF08FFA002269
:101E9000082125480DF08AFA0022102122480DF071
:101EA00085FA0022202120480DF080FA00224021EE
:101EB0001D480DF07BFA002280211B480DF076FAB8
:101EC00000224FF4807118480DF070FA00224FF490
:101ED000007115480DF06AFA00224FF48061124833
:101EE0000DF064FA00224FF400610F480DF05EFA25
:101EF00000224FF480510C480DF058FA00224FF4A4
:101F0000005109480DF052FA00224FF48041064872
:101F10000DF04CFA00224FF4004103480DF046FA50
:101F200010BD000000140240001802401CB53E48DD
:101F30000023012240F6B83100903CA01AF07CFD4D
:101F40003E4908601AF096FB0446002003462246EC
:101F500001210090394800681AF0B2FD4FF4BA61CF
:101F60003748FEF7B0F9C8213648FEF7ACF9E02152
:101F70003548FEF7A8F9FEF7D5FF00F099F80020E4
:101F800003F078FC0A2019F080FA03F0CBFE002160
:101F9000252000F04BF90121212000F047F9012014
:101FA00002F052F902F066F908F00CF904F080F83A
:101FB00004F05CF807F014FF04F00AF904F0ACFF39
:101FC00005F078F805F0E2F8204806F0A3FF05F0E8
:101FD00039FA0BF0FDFF0AF0D9FA0AF04DFB1C4864
:101FE000032100234FF40072CDE9001019A11C4811
:101FF0001AF000FB1B4804210023CA01CDE90010A0
:1020000019A11C481AF0F6FA0020034602460521E1
:1020100000900A4800681AF053FD1748006819F04C
:1020200039FC00BFFEE70000D58E010852657365DC
:10203000745F43616C6C6261636B00002C00002074
:10204000E45F00201C5F0020046A002018000020CC
:102050002400002053616D705F5461736B000000B9
:1020600091A701082800002053706172655F5461D8
:10207000736B000019BA01082000002010B501465A
:102080000A46C81701EB10700011A1EB00100B46B7
:10209000CC1701EB1474241104EB840400EB44000E
:1020A000C0B210BD00BFFEE74FF0D04211547047E0
:1020B00000B597B002F0E8F84FF4606012F0F4FD5C
:1020C00000200190029003900F2004903220059090
:1020D0000F200690079000200890099001200A9098
:1020E00000200B900C9001200D90C0020E9000205B
:1020F0000F901090119010201290002013901490C7
:1021000001A81590169008A80CF0AEFF00200CF066
:102110009FFF012008900020099001200A900020D4
:102120000B900C9001200D90C0020E9000200F909B
:10213000109011901020129000201390149001A87C
:102140001590169008A80CF08FFF01200CF080FF6E
:10215000022008900020099001200A9000200B9096
:102160000C9001200D90C0020E9000200F90109056
:10217000119012901390149001A81590169008A831
:102180000CF072FF02200CF063FF03200890002087
:10219000099001200A9000200B900C9001200D90D6
:1021A000C0020E9000200F901090119010201290FD
:1021B00000201390149001A81590169008A80CF018
:1021C00053FF03200CF044FF01210620FFF76CFFB2
:1021D000FF210120FFF768FFFF210220FFF764FFC6
:1021E000FF210320FFF760FFFF210420FFF75CFFC2
:1021F000FF210520FFF758FFFF210920FFF754FFBB
:10220000FF210A20FFF750FFFF210B20FFF74CFFB3
:10221000FF210D20FFF748FFFF210E20FFF744FFAD
:10222000FF210F20FFF740FF17B000BD3EB503466A
:102230000C46002000901846D91703EB5171C1F3EA
:10224000CF010291D91703EB5171C910A3EBC10162
:1022500089B20191012C0CD12849BDF8082001EB6D
:1022600042000188BDF804500122AA4011430180B8
:102270000BE02249BDF8082001EB42000188BDF8BF
:1022800004500122AA4091430180BDF808000528AE
:1022900031D2DFE800F0030C151E27001748BDF807
:1022A000082010F812100120FFF7FEFE24E013486A
:1022B000BDF8082010F812100220FFF7F5FE1BE011
:1022C0000E48BDF8082010F812100320FFF7ECFEAE
:1022D00012E00A48BDF8082010F812100420FFF799
:1022E000E3FE09E00548BDF8082010F812100520AB
:1022F000FFF7DAFE00E000BF00BF3EBDE46A002049
:1023000070B50446254635F8020B0449A1F8B80516
:102310000021084602F082FF70BD0000E45F00204B
:1023200070B52DED028B82B005469FEDFE0AF0EEF2
:10233000408A9FEDFC0AB0EE408A00242E4636F813
:10234000020BADF8000036F8020BADF80200F648BB
:10235000B0F8B8050B287CD1BDF80200012879D16E
:10236000BDF80000062876D2DFE800F09D03263293
:102370006092EE4890ED1A0AB5EEC00AF1EE10FA3E
:102380000ED290ED1A0AFAEE040A20EE200ABCEEF4
:10239000C00A8DED010A019840F0004001900AE06A
:1023A000E24890ED1A0ABCEEC00A10EE100A00EBEB
:1023B00080004000019077E0DC4890ED1C0ABCEE04
:1023C000C00A10EE100A00EB8000400001906BE0A4
:1023D000D64890ED1E0AB5EEC00AF1EE10FA15D2FD
:1023E00090ED1E0ADFEDD20A20EE200A80ED1E0AD3
:1023F00090ED1E0AFFEE000A20EE200ABCEEC00A95
:1024000010EE100A40F0004001900EE0C74890ED39
:102410001E0ADFEDC70A20EE200A80ED1E0A90EDAD
:102420001E0ABCEEC00A8DED010A3DE0BF4890EDEA
:102430001E0AB5EEC00AF1EE10FA19D290ED1E0A8E
:10244000DFEDBB0A20EE200A80ED1E0A90ED1E0A89
:1024500002E0CFE029E026E0FFEE000A20EE200AAD
:10246000BCEEC00A10EE100A40F0004001900EE0F1
:10247000AE4890ED1E0ADFEDAE0A20EE200A80ED98
:102480001E0A90ED1E0ABCEEC00A8DED010A0BE09B
:10249000A64890ED200ABCEEC00A10EE100A642196
:1024A0004843019000E000BFF5E2BDF802000228B9
:1024B000FAD1BDF8000006287ED2DFE800F09903CB
:1024C00025315F8E994890ED1B0AB5EEC00AF1EEFA
:1024D00010FA0DD290ED1B0AFAEE040A20EE200A43
:1024E000BCEEC00A10EE100A40F0004001900AE075
:1024F0008E4890ED1B0ABCEEC00A10EE100A00EBED
:1025000080004000019074E0884890ED1D0ABCEE08
:10251000C00A10EE100A00EB80004000019068E055
:10252000824890ED1F0AB5EEC00AF1EE10FA15D2FE
:1025300090ED1F0ADFED7E0A20EE200A80ED1F0AD3
:1025400090ED1F0AFFEE000A20EE200ABCEEC00A42
:1025500010EE100A40F0004001900EE0734890ED3C
:102560001F0ADFED730A20EE200A80ED1F0A90EDAE
:102570001F0ABCEEC00A8DED010A3AE06B4890EDEF
:102580001F0AB5EEC00AF1EE10FA16D290ED1F0A3E
:10259000DFED670A20EE200A80ED1F0A90ED1F0A8A
:1025A000FFEE000A20EE200ABCEEC00A10EE100A70
:1025B00040F0004001900FE01AE05C4890ED1F0AE7
:1025C000DFED5B0A20EE200A80ED1F0A90ED1F0A66
:1025D000BCEEC00A8DED010A0BE0544890ED210AD3
:1025E000BCEEC00A10EE100A64214843019000E0DE
:1025F00000BF50E24C48B0F8B8050A28F9D1BDF840
:10260000020001287ED1BDF8000006287BD2DFE859
:1026100000F07A033C5CA5E2444890ED1A0AF0EE23
:10262000408A4148B0F8B8050A2804D03E48B0F8BE
:10263000B805022807D10021B120B0EE680A03F0E6
:1026400065F8F0EE408A394890ED1A0AB5EEC00AF6
:10265000F1EE10FA10D2BFEE000A28EE800AF0EE7A
:10266000408ABCEEE80A10EE100A00EB800044003D
:1026700044F00044019407E0BCEEE80A10EE100AB2
:1026800000EB800044000194E3E0284890ED1C0A30
:10269000F0EE408A2448B0F8B8050A2804D0224851
:1026A000B0F8B805022807D10021B320B0EE680ABF
:1026B00003F02CF8F0EE408ABCEEE80A10EE100AA7
:1026C00000EB800044000194C3E0184890ED1E0A1E
:1026D000B0EE408A1448B0F8B8050A2804D0124871
:1026E000B0F8B805022807D10021C120B0EE480A91
:1026F00002F046FFB0EE408A0C4890ED1E0AB5EE9F
:10270000C00A01E0A6E0A3E0F1EE10FA1AD2BFEE93
:10271000000A28EE000ADFED060A20EE200AB0EEDD
:10272000408A07E000000000E45F00201C5F0020FA
:102730000000C842BCEEC80A10EE104A44F0004443
:1027400001940AE01FED060A28EE000AB0EE408A66
:10275000BCEEC80A10EE104A01947AE0D24890ED1F
:102760001E0AB0EE408AD148B0F8B8050A2804D055
:10277000CE48B0F8B805022807D10021C220B0EE3B
:10278000480A02F0FDFEB0EE408AC74890ED1E0AEE
:10279000B5EEC00AF1EE10FA11D2BFEE000A28EE33
:1027A000000A5FED1D0A20EE200AB0EE408ABCEE62
:1027B000C80A10EE104A44F0004401940AE01FEDEC
:1027C000240A28EE000AB0EE408ABCEEC80A10EED9
:1027D000104A01943DE0B44890ED200AB0EE408AE2
:1027E000B248B0F8B8050A2804D0B048B0F8B80527
:1027F000022807D10021C520B0EE480A02F0C0FE31
:10280000B0EE408AA84890ED200AB5EEC00AF1EE7D
:1028100010FA11D2BFEE000A28EE000A5FED3C0A62
:1028200020EE200AB0EE408ABCEEC80A10EE104A34
:1028300044F0004401940AE01FED430A28EE000A28
:10284000B0EE408ABCEEC80A10EE104A019400E0D7
:1028500000BF20E1BDF802000228FAD1BDF8000057
:1028600006287DD2DFE800F07C033C5C9BD88E48D4
:1028700090ED1B0AF0EE408A8C48B0F8B8050A28A3
:1028800004D08A48B0F8B805022807D10021B22048
:10289000B0EE680A02F03AFFF0EE408A824890ED0E
:1028A0001B0AB5EEC00AF1EE10FA10D2BFEE000A14
:1028B00028EE800AF0EE408ABCEEE80A10EE100A1C
:1028C00000EB8000440044F00044019407E0BCEEBB
:1028D000E80A10EE100A00EB800044000194D9E0F1
:1028E000714890ED1D0AF0EE408A7048B0F8B805C6
:1028F0000A2804D06D48B0F8B805022807D1002195
:10290000B420B0EE680A02F001FFF0EE408ABCEE9F
:10291000E80A10EE100A00EB800044000194B9E0D0
:10292000614890ED1F0AB0EE408A6048B0F8B805E3
:102930000A2804D05D48B0F8B805022807D1002164
:10294000C320B0EE480A02F01BFEB0EE408A5648A3
:1029500090ED1F0AB5EEC00AF1EE10FA13D200E0B6
:1029600097E0BFEE000A28EE000A5FED8F0A20EE26
:10297000200AB0EE408ABCEEC80A10EE104A44F0BD
:10298000004401940AE01FED960A28EE000AB0EE1A
:10299000408ABCEEC80A10EE104A01947AE0424820
:1029A00090ED1F0AB0EE408A4048B0F8B8050A28FA
:1029B00004D03E48B0F8B805022807D10021C42051
:1029C000B0EE480A02F0DCFDB0EE408A364890EDE9
:1029D0001F0AB5EEC00AF1EE10FA11D2BFEE000ADE
:1029E00028EE000A5FEDAE0A20EE200AB0EE408A23
:1029F000BCEEC80A10EE104A44F0004401940AE00C
:102A00001FEDB50A28EE000AB0EE408ABCEEC80AF7
:102A100010EE104A01943DE0234890ED210AB0EEFB
:102A2000408A2248B0F8B8050A2804D01F48B0F8F8
:102A3000B805022807D10021C620B0EE480A02F0EE
:102A40009FFDB0EE408A184890ED210AB5EEC00A0D
:102A5000F1EE10FA11D2BFEE000A28EE000A5FED87
:102A6000CC0A20EE200AB0EE408ABCEEC80A10EE76
:102A7000104A44F0004401940AE01FEDD30A28EE06
:102A8000000AB0EE408ABCEEC80A10EE104A01946B
:102A900000E000BF00BF6946042002F0BFFB02B0A7
:102AA000BDEC028B70BD00001C5F0020E45F0020C5
:102AB0002DE9F0472DED0A8B82B007460121252034
:102AC000FFF7B4FB002001F0BFFB142018F0B0FEAC
:102AD0003D4600249FEDF90AB0EE409AA14635F834
:102AE00002AB35F8028B35F8020BADF8040035F86F
:102AF000020BADF806005646F148B0F8B8050A28B2
:102B00007ED1B8F1010F7CD1BAF1060F7AD2DFE89D
:102B10000AF0790344D3D4D5019921F00040FDF7A0
:102B20008CFD41EC1B0B9FEDE70B53EC102BFDF7DD
:102B300004FD41EC1A0BFDF709FE08EE100A01989E
:102B4000B0F1004F05D9BFEE000A28EE000AB0EE42
:102B5000408A0021A120B0EE480A02F0B7F9F0EE59
:102B6000408A18EE900AFDF7ADFD41EC1B0B9FED7E
:102B7000D70B53EC102BFDF7E0FC41EC1A0BFDF7E3
:102B8000E5FD08EE900A0121B0EE680A002007F08A
:102B9000B1F9C82018F04CFED8E0019921F00040AE
:102BA000FDF74BFD41EC1B0B9FEDC60B53EC102BBF
:102BB000FDF7C3FC41EC1A0BFDF7C8FD08EE100A47
:102BC0000021A320B0EE480A02F080F9F0EE408A1E
:102BD00018EE900AFDF776FD41EC1B0B9FEDBB0B49
:102BE00053EC102BFDF7A9FC41EC1A0BFDF7AEFDE1
:102BF00008EE900A019921F00040FDF71EFD02E069
:102C0000DBE1A4E0A1E041EC1B0B9FEDAE0B53EC2C
:102C1000102BFDF792FC41EC1A0BFDF797FD09EE26
:102C2000100A9FEDAC0AC9EE000AB0EE609A19EEE8
:102C3000100AFDF747FD41EC1C0B9FEDA20B53EC76
:102C4000102BFDF77AFC41EC1B0B9FEDA30B53EC13
:102C5000102BFDF7FAFB41EC1A0BFDF71AFD84B2BD
:102C6000A146019830B901219FED940A022007F096
:102C700041F91DE0002413E004EB8400002101EB86
:102C8000400000EE900AF8EEE00AB0EE600A012182
:102C9000022007F02FF9642018F0CAFD601C84B2EE
:102CA0004C45E9DB0121B0EE680A022007F022F969
:102CB000C82018F0BDFD49E000BF00BF019858B31F
:102CC0000198B0F1004F0CD90121B9EE000A0020A3
:102CD00007F010F90121B9EE000A084607F00AF9D9
:102CE0000DE0F1EE008A0121B0EE680A002007F045
:102CF00001F90121B0EE680A084607F0FBF801214E
:102D0000B1EE000A022007F0F5F80121B1EE000A49
:102D1000032007F0EFF817E001219FED680A00207B
:102D200007F0E8F801219FED650A084607F0E2F890
:102D300001219FED620A022007F0DCF801219FEDDE
:102D40005F0A032007F0D6F800E000BFA3E3B8F164
:102D5000020FFBD1062E7AD2DFE806F0790344E4B5
:102D6000E5E6019921F00040FDF767FC41EC1B0B03
:102D70009FED540B53EC102BFDF7DFFB41EC1A0BCE
:102D8000FDF7E4FC08EE100A0198B0F1004F05D9F8
:102D9000BFEE000A28EE000AB0EE408A0021A22011
:102DA000B0EE480A02F092F8F0EE408A18EE900A6F
:102DB000FDF788FC41EC1B0B9FED440B53EC102BF3
:102DC000FDF7BBFB41EC1A0BFDF7C0FC08EE900AC7
:102DD0000121B0EE680A084607F08CF8C82018F008
:102DE00027FDE9E0019921F00040FDF726FC41ECC8
:102DF0001B0B9FED340B53EC102BFDF79EFB41ECAE
:102E00001A0BFDF7A3FC08EE100A0021A420B0EE77
:102E1000480A02F05BF8F0EE408A18EE900AFDF7DF
:102E200051FC41EC1B0B9FED290B53EC102BFDF7D4
:102E300084FB41EC1A0BFDF789FC08EE900A01991E
:102E400021F00040FDF7F9FB41EC1B0B00E0B2E084
:102E50009FED1C0B53EC102BFDF76FFB41EC1A0B95
:102E6000FDF774FC09EE100A9FED1A0AC9EE000A7C
:102E7000B0EE609A19EE100AFDF724FC41EC1C0B31
:102E80009FED100B53EC102BFDF757FB41EC1B0B88
:102E90009FED110B53EC102BFDF7D7FA41EC1A0BF9
:102EA000FDF7F7FB84B2A1460198C8B901219FED57
:102EB000030A032007F01EF830E0000000000000C5
:102EC000E45F00200000000000002440000000003B
:102ED00000408F4000007A44000000000000F03FF6
:102EE000002413E004EB8400002101EB400000EE1D
:102EF000900AF8EEE00AB0EE600A0121032006F025
:102F0000F9FF642018F094FC601C84B24C45E9DBA6
:102F10000121B0EE680A032006F0ECFFC82018F08B
:102F200087FC49E000BF00BF019858B30198B0F199
:102F3000004F0CD90121B9EE000A002006F0DAFF9B
:102F40000121B9EE000A084606F0D4FF0DE0F1EECB
:102F5000008A0121B0EE680A002006F0CBFF0121B3
:102F6000B0EE680A084606F0C5FF0121B1EE000A7E
:102F7000022006F0BFFF0121B1EE000A032006F097
:102F8000B9FF17E001211FED330A002006F0B2FF60
:102F900001211FED360A084606F0ACFF01211FEDA6
:102FA000390A022006F0A6FF01211FED3C0A03208A
:102FB00006F0A0FF00E000BF6DE2FE48B0F8B805E3
:102FC0000B28F9D1B8F1010F7ED1062E7DD2DFE8B2
:102FD00006F07C034CD6D7D8019921F00040FDF7CC
:102FE0002CFB41EC1B0B1FED490B53EC102BFDF799
:102FF000A4FA41EC1A0BFDF7A9FB08EE100A18EE33
:10300000100A08EE900A18EE900AFDF75BFB41ECFF
:103010001B0B1FED520B53EC102BFDF78EFA41ECFE
:103020001A0BFDF793FB08EE900A019800F00040A0
:1030300088B118EE900AFDF745FB41EC1B0B9FEDA4
:10304000DE0B53EC102BFDF706FA41EC1A0BFDF7E3
:103050007DFB08EE900A0121B0EE680A002006F020
:1030600049FFC82018F0E4FBD3E0019921F00040AB
:10307000FDF7E3FA41EC1B0B1FED6E0B53EC102B2D
:10308000FDF75BFA41EC1A0BFDF760FB08EE100A46
:1030900018EE100A08EE900A18EE900AFDF712FBDF
:1030A00041EC1B0B1FED770B53EC102BFDF745FA92
:1030B00041EC1A0BFDF74AFB08EE900A019921F04A
:1030C0000040FDF7BAFA01E0A4E0A1E041EC1B0BDF
:1030D0001FED840B53EC102BFDF72FFA41EC1A0B6C
:1030E000FDF734FB09EE100A1FED860AC9EE000A4F
:1030F000B0EE609A19EE100AFDF7E4FA41EC1C0BF1
:103100001FED900B53EC102BFDF717FA41EC1B0B46
:103110001FED8F0B53EC102BFDF797F941EC1A0BB9
:10312000FDF7B7FA84B2A146019830B901211FED2D
:103130009D0A022006F0DEFE1DE0002413E004EBF1
:103140008400002101EB400000EE900AF8EEE00A56
:10315000B0EE600A0121022006F0CCFE642018F0D7
:1031600067FB601C84B24C45E9DB0121B0EE680AC4
:10317000022006F0BFFEC82018F05AFB49E000BF4D
:1031800000BF019858B30198B0F1004F0CD901214C
:10319000B9EE000A002006F0ADFE0121B9EE000AEA
:1031A000084606F0A7FE0DE0F1EE008A0121B0EE20
:1031B000680A002006F09EFE0121B0EE680A08466B
:1031C00006F098FE0121B1EE000A022006F092FE00
:1031D0000121B1EE000A032006F08CFE17E0012168
:1031E0001FEDCA0A002006F085FE01211FEDCD0A61
:1031F000084606F07FFE01211FEDD00A022006F0EE
:1032000079FE01211FEDD30A032006F073FE00E0D2
:1032100000BF40E1B8F1020FFBD1062E7ED2DFE8FD
:1032200006F07D034CEFF0F1019921F00040FDF72D
:1032300004FA41EC1B0B1FEDDD0B53EC102BFDF7DB
:103240007CF941EC1A0BFDF781FA08EE100A18EE32
:10325000100A08EE900A18EE900AFDF733FA41ECD6
:103260001B0B1FEDE60B53EC102BFDF766F941EC41
:103270001A0BFDF76BFA08EE900A019800F0004077
:1032800088B118EE900AFDF71DFA41EC1B0B9FED7B
:103290004A0B53EC102BFDF7DEF841EC1A0BFDF74F
:1032A00055FA08EE900A0121B0EE680A084606F0C9
:1032B00021FEC82018F0BCFAECE0019921F0004092
:1032C000FDF7BBF941EC1B0B9FED3D0B53EC102BB5
:1032D000FDF733F941EC1A0BFDF738FA08EE100A46
:1032E00018EE100A08EE900A18EE900AFDF7EAF9B7
:1032F00041EC1B0B9FED340B53EC102BFDF71DF92C
:1033000041EC1A0BFDF722FA08EE900A019921F020
:103310000040FDF792F941EC1B0B00E0B9E09FED96
:10332000280B53EC102BFDF708F941EC1A0BFDF7B5
:103330000DFA09EE100A9FED260AC9EE000AB0EE5A
:10334000609A19EE100AFDF7BDF941EC1C0B9FEDD8
:103350001C0B53EC102BFDF7F0F841EC1B0B9FED11
:103360001D0B53EC102BFDF770F841EC1A0BFDF719
:1033700090F984B2A146019830B901219FED170A56
:10338000032006F0B7FD34E000242AE004EB8400BB
:10339000002101EB400000EE900AF8EEE00AB0EEEA
:1033A000600A0121032006F0A5FD642018F040FA10
:1033B000601C15E0E45F0020000000000000F0BF8A
:1033C00000000000000024400000000000408F408A
:1033D00000007A44000000000000F03F0000000000
:1033E00084B24C45D2DB0121B0EE680A032006F01E
:1033F00081FDC82018F01CFA4CE003E001E0FFE773
:1034000000BF00BF019858B30198B0F1004F0CD92C
:103410000121B9EE000A002006F06CFD0121B9EE91
:10342000000A084606F066FD0DE0F1EE008A012173
:10343000B0EE680A002006F05DFD0121B0EE680ADA
:10344000084606F057FD0121B1EE000A022006F001
:1034500051FD0121B1EE000A032006F04BFD17E0FB
:1034600001211FED220A002006F044FD01211FED7D
:10347000250A084606F03EFD01211FED280A02201C
:1034800006F038FD01211FED2B0A032006F032FD66
:1034900000E000BF00BF0021084601F0BFFE012090
:1034A00000F0D2FE02B0BDEC0A8BBDE8F087000050
:1034B00010B500201D4B9A79D9791B7893421BDAFD
:1034C000C2F13C03194C2478234498B2174B5B7823
:1034D0008B4209DD154B5B785B1A5B1EC3EB031354
:1034E00000EB830398B21FE0104B5B78C3EB031330
:1034F00000EB830398B217E00C4B1B789B1A98B231
:103500000A4B5B788B4208DB084B5B785B1AC3EB9A
:10351000031300EB830398B206E0044B5B78C3EB24
:10352000031300EB830398B210BD000030000020AD
:1035300010B500F099F800F003F801F099F910BD0A
:103540000C4890ED140A80ED1E0A90ED150A80EDEE
:103550001F0A90ED160AF2EE040A20EE200A80ED12
:10356000200A90ED170AF2EE040A20EE200A80ED00
:10357000210A70471C5F002010B52DED068B84B02A
:1035800000244EE02F4800EB840090ED000A10EE7E
:10359000101A0846FDF796F841EC1A0B9FED2A0B1E
:1035A00053EC102BFCF7C9FF41EC190B9FED280BD6
:1035B00053EC102BFCF7A8FE41EC180BFDF7C6F8F6
:1035C00003909DED030ADFED240A20EE200ADDEDD5
:1035D000030AB1EE041A71EE600A80EE201A8DED36
:1035E000021A9DED020ADFED1D0A30EE600A10EEB0
:1035F000101A0846FDF766F841EC190B9FED180B01
:1036000053EC102BFCF799FF41EC180BFDF79EF8DB
:1036100001909DED010A0B4800EB840080ED000A4B
:10362000641C022CAEDB0748603890ED180A80ED70
:10363000220A90ED190A80ED230A04B0BDEC068B36
:1036400010BD00007C5F002000000000009CE840EE
:10365000B728B3412619B93F00409C450000C84235
:10366000F6285C8FC2F5D83F10B52DED048B1F48AE
:1036700090ED100AF9EE040A20EE200A80ED1A0AF5
:1036800090ED110AF9EE040A20EE200A80ED1B0AE3
:1036900090ED120A10EE101A0846FDF713F841ECEF
:1036A000190B9FED130B53EC102BFCF746FF41EC6D
:1036B000180BFDF74BF80D490867084690ED130A03
:1036C00010EE101A0846FCF7FDFF41EC190B9FEDB8
:1036D000080B53EC102BFCF730FF41EC180BFDF7F7
:1036E00035F802494867BDEC048B10BD1C5F002013
:1036F0007B14AE47E17AA43F70B52DED028BB0EE9E
:10370000408A04460025B0EE480A204607F006FC31
:1037100005462846BDEC028B70BD10B50446204618
:1037200005F0F8FB10BD70B5044625462846FFF7A6
:10373000F4FF0021084601F071FD70BD70B52DED5C
:10374000088B05469FEDF40AF0EE408A9FEDF20AE1
:10375000B0EE408A002435B1012D7CD0022D7BD003
:10376000032D7AD163E1ED49496B21F00040FCF76C
:1037700064FF41EC1A0B9FEDEA0B53EC102BFCF7A6
:10378000DCFE41EC190BFCF7E1FF08EE100AE34800
:10379000406BB0F1004F01D9142400E00A2401214C
:1037A000002003F05DFEF9EE040A20EE200A10EE80
:1037B000106A3046FCF786FF41EC1A0B9FEDDA0BDE
:1037C00053EC102BFCF7B9FE41EC190BFCF7BEFFD4
:1037D00008EE900A142C21D118EE100AFCF772FFA3
:1037E00041EC1B0B9FEDD20B53EC102BFCF733FE7F
:1037F00041EC190BBFEE000A28EE800A10EE101AF9
:103800000846FCF75FFF41EC1A0B53EC192BFCF751
:1038100085FF23D30020BDEC088B70BD0A2C1DD181
:1038200018EE100AFCF74EFF41EC1B0B9FEDC00B8E
:1038300053EC102BFCF70FFE41EC190B18EE900A1D
:10384000FCF740FF41EC1A0B53EC192BFCF766FF19
:1038500004D30020DFE702E078E059E158E1AF4906
:10386000496B21F00040FCF7E8FE41EC1A0B9FED9C
:10387000AC0B53EC102BFCF760FE41EC190BFCF782
:1038800065FF08EE100AA548406BB0F1004F01D962
:10389000142400E00A240121084603F0E1FDF9EEBA
:1038A000040A20EE200A10EE106A3046FCF70AFFE8
:1038B00041EC1A0B9FED9C0B53EC102BFCF73DFEDB
:1038C00041EC190BFCF742FF08EE900A142C1FD1B3
:1038D00018EE100AFCF7F6FE41EC1B0B9FED940B63
:1038E00053EC102BFCF7B7FD41EC190BBFEE000AAF
:1038F00028EE800A10EE101A0846FCF7E3FE41ECB1
:103900001A0B53EC192BFCF709FF1ED3002082E79A
:103910000A2C1AD118EE100AFCF7D4FE41EC1B0B4E
:103920009FED830B53EC102BFCF795FD41EC190B2D
:1039300018EE900AFCF7C6FE41EC1A0B53EC192B5B
:10394000FCF7ECFE01D3002065E7E1E07349C96AAA
:1039500021F00040FCF771FE41EC1A0B9FED700B5B
:1039600053EC102BFCF7E9FD41EC190BFCF7EEFED4
:1039700008EE100A0121022003F072FD10EE106A19
:103980003046FCF79FFE41EC1B0B9FED6B0B53EC9D
:10399000102BFCF7D2FD41EC1A0B9FED630B53EC9F
:1039A000102BFCF7CAFD41EC190BFCF7CFFE08EE1B
:1039B000900AB1EE040AB4EEC08AF1EE10FA1ADBF6
:1039C00018EE100AFCF77EFE41EC1B0B9FED580B26
:1039D00053EC102BFCF73FFD41EC190B18EE900A4D
:1039E000FCF770FE41EC1A0B53EC192BFCF796FE1A
:1039F0001CD300200FE718EE100AFCF763FE41EC21
:103A00001B0B9FED4F0B53EC102BFCF724FD41ECEF
:103A1000190B18EE900AFCF755FE41EC1A0B53EC0B
:103A2000192BFCF77BFE01D30020F4E670E03B4944
:103A3000C96A21F00040FCF700FE41EC1A0B9FED33
:103A4000380B53EC102BFCF778FD41EC190BFCF70D
:103A50007DFE08EE100A0121032003F001FD10EEA7
:103A6000106A3046FCF72EFE41EC1B0B9FED320B2B
:103A700053EC102BFCF761FD41EC1A0B9FED2A0B68
:103A800053EC102BFCF759FD41EC190BFCF75EFED3
:103A900008EE900AB1EE040AB4EEC08AF1EE10FA14
:103AA0001ADB18EE100AFCF70DFE41EC1B0B9FED24
:103AB000200B53EC102BFCF7CEFC41EC190B18EE4D
:103AC000900AFCF7FFFD41EC1A0B53EC192BFCF7A5
:103AD00025FE1CD300209EE618EE100AFCF7F2FD2E
:103AE00041EC1B0B9FED160B53EC102BFCF7B3FCBA
:103AF00041EC190B18EE900AFCF7E4FD41EC1A0BAF
:103B000053EC192BFCF70AFE01D3002083E600BF1B
:103B100000BF01207FE6000000000000046A0020D2
:103B200000000000000059400000000000408F40ED
:103B3000333333333333EB3F7B14AE47E17AA43F67
:103B4000000000000000E03F2DE9F0412DED088B62
:103B500006469FEDCE0AB0EE408A9FEDCC0A10EEED
:103B6000104A002536B1012E7ED0022E79D0032EC8
:103B700078D13AE1C649496B21F00040FCF75DFD80
:103B800041EC1A0B9FEDC30B53EC102BFCF7D5FC4B
:103B900041EC190BFCF7DAFD0446BD48406BB0F16F
:103BA000004F01D9142500E00A250121002003F06F
:103BB00057FCF9EE040A20EE200A10EE107A38467F
:103BC000FCF780FD41EC1A0B9FEDB40B53EC102B6E
:103BD000FCF7B3FC41EC190BFCF7B8FD08EE100A3A
:103BE000142D21D12046FCF76DFD41EC1B0B9FED00
:103BF000AD0B53EC102BFCF72EFC41EC190BBFEE78
:103C0000000A28EE000A10EE101A0846FCF75AFDCA
:103C100041EC1A0B53EC192BFCF768FD23D3002061
:103C2000BDEC088BBDE8F0810A2D1CD12046FCF7C5
:103C300049FD41EC1B0B9FED9B0B53EC102BFCF74C
:103C40000AFC41EC190B18EE100AFCF73BFD41ECA5
:103C50001A0B53EC192BFCF749FD04D30020DFE7C6
:103C600002E075E00EE10DE18949496B21F0004069
:103C7000FCF7E3FC41EC1A0B9FED860B53EC102B89
:103C8000FCF75BFC41EC190BFCF760FD0446804837
:103C9000406BB0F1004F01D9142500E00A25012145
:103CA000084603F0DDFBF9EE040A20EE200A10EED0
:103CB000107A3846FCF706FD41EC190B9FED770BA7
:103CC00053EC102BFCF739FC41EC1A0BFCF73EFDD2
:103CD00008EE100A142D1ED12046FCF7F3FC41EC2F
:103CE0001B0B9FED700B53EC102BFCF7B4FB41EC5E
:103CF000190BBFEE000A28EE000A10EE101A084653
:103D0000FCF7E0FC41EC1A0B53EC192BFCF7EEFC32
:103D10001DD3002084E70A2D19D12046FCF7D2FCE0
:103D200041EC1B0B9FED5F0B53EC102BFCF793FB4F
:103D300041EC190B18EE100AFCF7C4FC41EC1A0B0D
:103D400053EC192BFCF7D2FC01D3002068E799E073
:103D50004F49C96A21F00040FCF76FFC41EC1A0B97
:103D60009FED4C0B53EC102BFCF7E7FB41EC190BD0
:103D7000FCF7ECFC04460121022003F071FB10EE7D
:103D8000107A3846FCF79EFC41EC1B0B9FED470B6D
:103D900053EC102BFCF7D1FB41EC1A0B9FED3F0BC2
:103DA00053EC102BFCF7C9FB41EC190BFCF7CEFCD4
:103DB00008EE100A2046FCF785FC41EC1B0B9FED3A
:103DC0003D0B53EC102BFCF746FB41EC190B18EEA6
:103DD000100AFCF777FC41EC1A0B53EC192BFCF79B
:103DE00085FC01D300201BE74CE02949C96A21F07A
:103DF0000040FCF722FC41EC1A0B9FED260B53EC24
:103E0000102BFCF79AFB41EC190BFCF79FFC0446C6
:103E10000121032003F024FB10EE107A3846FCF752
:103E200051FC41EC1B0B9FED210B53EC102BFCF7CD
:103E300084FB41EC1A0B9FED190B53EC102BFCF794
:103E40007CFB41EC190BFCF781FC08EE100A2046C4
:103E5000FCF738FC41EC1B0B9FED160B53EC102BC1
:103E6000FCF7F9FA41EC190B18EE100AFCF72AFCE2
:103E700041EC1A0B53EC192BFCF738FC01D3002052
:103E8000CEE600BF00BF0120CAE60000000000002F
:103E9000046A0020000000000000594000000000FB
:103EA00000408F409A9999999999B93F7B14AE47F0
:103EB000E17AA43F333333333333D33F70B5044611
:103EC0000D461646324629462046FCF707FA08B941
:103ED000012070BD0020FCE710B500204F4908709C
:103EE0000A204F49A1F8BE05002081F8C005002135
:103EF0004B4880F8C1150020494981F8C205C82007
:103F000017F096FC002411E00021464820F8141018
:103F1000001D20F81410001D20F81410001D20F8BA
:103F20001410001D20F81410601C84B2022CEBDB6E
:103F300000203C49AC39A1F8C000A1F8C20000241F
:103F400005E00021384840F82410601C84B2022C9F
:103F5000F7DB002406E000213348083020F8141075
:103F6000601C84B2022CF6DB002406E000212E48FF
:103F70000C3040F82410601C84B2022CF6DB0024C4
:103F800006E000212848143020F81410601C84B288
:103F9000022CF6DB002406E000212348183040F80C
:103FA0002410601C84B2022CF6DB002406E0002101
:103FB0001D48203020F81410601C84B2022CF6DB5F
:103FC000002406E000211848243040F82410601C2A
:103FD00084B2022CF6DB002406E0002112482C30CB
:103FE00020F81410601C84B2022CF6DB002406E0DA
:103FF00000210D48303040F82410601C84B2022C9F
:10400000F6DB002406E000210748383020F81410C1
:10401000601C84B2022CF6DB10BD00001E000020E4
:10402000E45F0020C85F0020886A002010B50020EF
:10403000254908700A202549A1F8BE05002081F80D
:10404000C0050021214880F8C11500201F4981F8D2
:10405000C205C82017F0ECFB002431E01C4830F802
:10406000140018B900211B4840F824101848001DFE
:1040700030F8140020B9002116480C3040F8241004
:104080001348083030F8140020B9002111481830C6
:1040900040F824100E480C3030F8140020B90021EC
:1040A0000C48243040F824100948103030F814002F
:1040B00020B900210748303040F82410601C84B239
:1040C000022CCBDB10BD00001E000020E45F0020AE
:1040D000C85F0020886A00202DE9F0412DED068B95
:1040E000F0EE408A07463846B0EE680A06F07CFEDD
:1040F0000546D12F02D0D22F11D107E0E81D4B4940
:1041000051F8306001EBC00044680BE005F10C0091
:10411000464951F8306001EBC000446802E0444E6B
:10412000002400BF00BF4248864276D124F0004000
:10413000B0F5FA7F00D9002404F00040C0B33D4937
:10414000D1F88800FCF779FA41EC1A0B9FED3A0B95
:1041500053EC102BFCF7F1F941EC190BFCF7F6FAD4
:1041600008EE100A24F0004000EE100AB8EE400AF3
:1041700020EE080A10EE101A0846FCF7A3FA41ECEC
:104180001A0B9FED2F0B53EC102BFCF7D6F941ECDB
:10419000190BFCF7DBFA08EE100ABFEE000A28EE56
:1041A000000AB0EE408A38EE280AB0EE408A36E0C7
:1041B000FFE72049D1F88800FCF73FFA41EC1A0BE1
:1041C0009FED1D0B53EC102BFCF7B7F941EC190BCD
:1041D000FCF7BCFA08EE100A24F0004000EE100ACA
:1041E000B8EE400A20EE080A10EE101A0846FCF756
:1041F00069FA41EC1A0B9FED120B53EC102BFCF7F4
:104200009CF941EC190BFCF7A1FA08EE100A38EE04
:10421000280AB0EE408A02E0FFE7B0EE688AB0EE0E
:10422000480ABDEC068BBDE8F081000074690020EF
:1042300040420F00046A0020000000000088C340D4
:104240000000000000408F4010B5044614B1012C5E
:104250000ED108E000212720FDF7E8FF00212320F0
:10426000FDF7E4FF04E001212720FDF7DFFF00BF99
:1042700000BF10BD10B501212620FDF7D7FF012199
:104280002420FDF7D3FF10BD10B54FF4406010F0AF
:104290000BFD40F6014010F007FD40F6024010F023
:1042A00003FD40F6034010F0FFFC40F6044010F020
:1042B000FBFC40F6054010F0F7FC40F6064010F01D
:1042C000F3FC01220C21FE480BF03FF801230022F1
:1042D0000221FB480BF077F8012303220021F84864
:1042E0000BF0A0F802220C21F5480BF02EF8022367
:1042F00000221946F2480BF066F80223032200213F
:10430000EF480BF08FF84FF480720C21EC480BF063
:104310001CF84FF4807300220221E9480BF053F897
:104320004FF4807303220021E5480BF07BF84FF433
:1043300000720C21E2480BF008F84FF400730022E1
:104340000221DF480BF03FF84FF4007303220021F5
:10435000DB480BF067F84FF480620C21D8480AF074
:10436000F4FF4FF4806300220221D5480BF02BF8B4
:104370004FF4806303220021D1480BF053F84FF42F
:1043800080420C21CE480AF0E0FF4FF48043002227
:104390000221CB480BF017F84FF480430322002191
:1043A000C7480BF03FF84FF400420C21C4480AF014
:1043B000CCFF4FF4004300220221C1480BF003F868
:1043C0004FF4004303220021BD480BF02BF880225C
:1043D0000C21BC480AF0B9FF802300220221B94811
:1043E0000AF0F1FF802303220021B6480BF01AF8EF
:1043F0004FF480720C21B3480AF0A7FF4FF480738A
:1044000000220221AF480AF0DEFF4FF4807303223E
:104410000021AC480BF006F84FF400720C21A948BB
:104420000AF093FF4FF4007300220221A5480AF01E
:10443000CAFF4FF4007303220021A2480AF0F2FFE2
:104440004FF480620C219F480AF07FFF4FF4806395
:10445000002202219B480AF0B6FF4FF4806303223A
:10446000002198480AF0DEFF4FF400620C219548C5
:104470000AF06BFF4FF400630022022191480AF01A
:10448000A2FF4FF40063032200218E480AF0CAFF06
:104490004FF480520C218B480AF057FF4FF48053A1
:1044A0000022022187480AF08EFF4FF48053032236
:1044B000002184480AF0B6FF4FF400520C218148D5
:1044C0000AF043FF4FF40053002202217D480AF016
:1044D0007AFF4FF40053032200217A480AF0A2FF2A
:1044E0004FF480420C2177480AF02FFF4FF48043AD
:1044F0000022022173480AF066FF4FF48043032232
:10450000002170480AF08EFF4FF400420C216D48E4
:104510000AF01BFF4FF400430022022169480AF011
:1045200052FF4FF400430322002166480AF07AFF4D
:1045300001220C2164480AF008FF01230022022115
:1045400061480AF040FF0123032200215E480AF07F
:1045500069FF02220C215C480AF0F7FE02230022C8
:10456000194659480AF02FFF02230322002156481A
:104570000AF058FF04220C2153480AF0E6FE0423F7
:104580000022022150480AF01EFF042303220021CA
:104590004D480AF047FF08220C214B480AF0D5FE8F
:1045A00008230022022148480AF00DFF08230322B5
:1045B000002145480AF036FF20220C2142480AF02B
:1045C000C4FE2023002202213F480AF0FCFE2023E3
:1045D000032200213C480AF025FF4FF480520C21B1
:1045E00039480AF0B2FE4FF48053002202213648C7
:1045F0000AF0E9FE4FF480530322002132480AF00A
:1046000011FF4FF400520C212F480AF09EFE4FF488
:104610000053002202212C480AF0D5FE4FF400532B
:104620000322002128480AF0FDFE4FF480420C21AD
:1046300025480AF08AFE4FF48043002202212248D6
:104640000AF0C1FE4FF48043032200211E480AF005
:10465000E9FE4FF400420C211B480AF076FE4FF4AD
:1046600000430022022118480AF0ADFE4FF4004337
:104670000322002114480AF0D5FE01220C21134820
:104680000AF063FE01230022022110480AF09BFE7B
:104690000123032200210D480AF0C4FE02220C214E
:1046A0000A480AF052FE02230022194607480AF07F
:1046B0008AFE02230322002104480AF0B3FE07E029
:1046C000000C02400010024000140240001802409A
:1046D00004220C2158480AF038FE0423002202214B
:1046E00055480AF070FE04230322002152480AF0C4
:1046F00099FE08220C2150480AF027FE08230022C8
:1047000002214D480AF05FFE0823032200214A4897
:104710000AF088FE10220C2147480AF016FE1023EA
:104720000022022144480AF04EFE102303220021F9
:1047300041480AF077FE20220C213F480AF005FE8E
:104740002023002202213C480AF03DFE20230322C0
:10475000002139480AF066FE102300220221374862
:104760000AF031FE10230322002134480AF05AFED9
:1047700010220C2131480AF0E8FD202300220221FA
:104780002E480AF020FE2023032200212B480AF0A5
:1047900049FE20220C2129480AF0D7FD802300225F
:1047A000022126480AF00FFE80230322002123481D
:1047B0000AF038FE80220C2120480AF0C6FD4FF492
:1047C0000073002202211C480AF0FDFD4FF4007323
:1047D0000322002118480AF025FE4FF400720C2134
:1047E00015480AF0B2FD4FF48063002202211248FE
:1047F0000AF0E9FD4FF48063032200210E480AF01D
:1048000011FE4FF480620C210B480AF09EFD4FF41C
:1048100080530022022108480AF0D5FD4FF480534E
:104820000322002104480AF0FDFD4FF480520C21C0
:1048300001480AF08AFD10BD00180240000C024039
:1048400030B505460A460023B2F5C06F01D90020F5
:1048500030BD2C46002107E014F81100034434F861
:10486000110003EB2023491C9142F5D31846EFE7D2
:1048700010B52DED028B88B09FEDFE0AF0EE408A58
:104880009FEDFC0AB0EE408A0024002004900590C1
:10489000069007900090019002900390F64890EDEA
:1048A0001A0AF0EE408AF548B0F8B8050A2804D094
:1048B000F248B0F8B805022807D10021B120B0EEC7
:1048C000680A00F023FFF0EE408AB2EE040A28EEF8
:1048D000800AF0EE408AE84890ED1A0AB5EEC00A68
:1048E000F1EE10FA0FD2BFEE000A28EE800AF0EEC9
:1048F000408ABCEEE80A10EE104A44F00044E0485A
:10490000C0F8904006E0BCEEE80A10EE104ADC4821
:10491000C0F89040D84890ED1B0AF0EE408AD74886
:10492000B0F8B8050A2804D0D448B0F8B805022871
:1049300007D10021B220B0EE680A00F0E7FEF0EEE9
:10494000408AB2EE040A28EE800AF0EE408ACA4895
:1049500090ED1B0AB5EEC00AF1EE10FA0FD2BFEED1
:10496000000A28EE800AF0EE408ABCEEE80A10EE5B
:10497000104A44F00044C248C0F8944006E0BCEE3F
:10498000E80A10EE104ABE48C0F89440BA4890EDCC
:104990001C0AF0EE408AB948B0F8B8050A2804D0DD
:1049A000B648B0F8B805022807D10021B320B0EE10
:1049B000680A00F0ABFEF0EE408AB2EE040A28EE80
:1049C000800AF0EE408ABCEEE80A10EE104AAC48CD
:1049D000C0F88440A84890ED1D0AF0EE408AA74830
:1049E000B0F8B8050A2804D0A448B0F8B8050228E1
:1049F00007D10021B420B0EE680A00F087FEF0EE87
:104A0000408AB2EE040A28EE800AF0EE408ABCEE3C
:104A1000E80A10EE104A9A48C0F88840964890ED8F
:104A20001E0AB5EEC00AF1EE10FA36D290ED1E0A5B
:104A3000B0EE408A9148B0F8B8050A2804D08F48F3
:104A4000B0F8B805022807D10021C220B0EE480A0C
:104A500000F096FDB0EE408AB2EE040A28EE000A9D
:104A6000B0EE408A844890ED1E0AB5EEC00AF1EE21
:104A700010FA0CD2BFEE000A28EE000AB0EE408A0F
:104A8000BCEEC80A10EE104A44F000443CE000BFFF
:104A9000BCEEC80A10EE104A36E0774890ED1E0AC8
:104AA000B0EE408A7548B0F8B8050A2804D07348BB
:104AB000B0F8B805022807D10021C120B0EE480A9D
:104AC00000F05EFDB0EE408AB2EE040A28EE000A65
:104AD000B0EE408A684890ED1E0AB5EEC00AF1EECD
:104AE00010FA0CD2BFEE000A28EE000AB0EE408A9F
:104AF000BCEEC80A10EE104A44F0004404E000BFC7
:104B0000BCEEC80A10EE104A24F00040322804D24D
:104B100000215B48C0F8A81002E05948C0F8A8403E
:104B2000554890ED1F0AB5EEC00AF1EE10FA36D2E4
:104B300090ED1F0AB0EE408A5048B0F8B8050A2838
:104B400004D04E48B0F8B805022807D10021C4208F
:104B5000B0EE480A00F014FDB0EE408AB2EE040A4E
:104B600028EE000AB0EE408A434890ED1F0AB5EEE9
:104B7000C00AF1EE10FA0CD2BFEE000A28EE000ACD
:104B8000B0EE408ABCEEC80A10EE104A44F0004471
:104B90003CE000BFBCEEC80A10EE104A36E03648D2
:104BA00090ED1F0AB0EE408A3448B0F8B8050A28E4
:104BB00004D03248B0F8B805022807D10021C3203C
:104BC000B0EE480A00F0DCFCB0EE408AB2EE040A17
:104BD00028EE000AB0EE408A274890ED1F0AB5EE95
:104BE000C00AF1EE10FA0CD2BFEE000A28EE000A5D
:104BF000B0EE408ABCEEC80A10EE104A44F0004401
:104C000004E000BFBCEEC80A10EE104A24F00040D9
:104C1000322804D200211A48C0F8AC1002E018482B
:104C2000C0F8AC40144890ED200AB0EE408A13481A
:104C3000B0F8B8050A2804D01048B0F8B805022822
:104C400007D10021C520B0EE480A00F099FCB0EE73
:104C5000408AD120B0EE480AFFF73EFAB0EE408A13
:104C6000B2EE040A28EE000AB0EE408A024890ED47
:104C7000200A07E0000000001C5F0020E45F002025
:104C8000046A0020B5EEC00AF1EE10FA0CD2BFEEB5
:104C9000000A28EE000AB0EE408ABCEEC80A10EE08
:104CA000104A44F0004404E000BFBCEEC80A10EE15
:104CB000104A334890ED200AF3EE0E0AB4EEE00AF3
:104CC000F1EE10FA04D200212E48C0F89C1002E048
:104CD0002C48C0F89C402A4890ED210AB0EE408A4A
:104CE0002948B0F8B8050A2804D02748B0F8B80514
:104CF000022807D10021C620B0EE480A00F040FC8F
:104D0000B0EE408AD220B0EE480AFFF7E5F9B0EEE7
:104D1000408AB2EE040A28EE000AB0EE408A184833
:104D200090ED210AB5EEC00AF1EE10FA0CD2BFEEFA
:104D3000000A28EE000AB0EE408ABCEEC80A10EE67
:104D4000104A44F0004404E000BFBCEEC80A10EE74
:104D5000104A0B4890ED210AF3EE0E0AB4EEE00A79
:104D6000F1EE10FA04D200210648C0F8A01002E0CB
:104D70000448C0F8A04008B0BDEC028B10BD000094
:104D80001C5F0020046A0020E45F002030B5034669
:104D9000002025E0451CACB21EE003EB8005D5EDFC
:104DA000001A03EB840595ED002AF4EEC21AF1EE29
:104DB00010FA0FDD03EB8005D5ED000A03EB840547
:104DC000D5ED001A03EB8005C5ED001A03EB840551
:104DD000C5ED000A651CACB28C42DEDB451CA8B2F6
:104DE0008842D7DB9FED0D0A104609E003EB8005F2
:104DF000D5ED001A71EE801AB0EE610A451CA8B21A
:104E00008D1A8542F2DCA1EB420501EE905AB8EE14
:104E1000E11AC0EE011AB0EE610A30BD00000000D8
:104E200010B503469FED0F1AB0EE410A0020104660
:104E300009E003EB800494ED001A31EE001AB0EEA5
:104E4000410A441CA0B28C1A8442F2DCA1EB420459
:104E500001EE104AF8EEC10A80EE201AB0EE410AC7
:104E600010BD00000000000008B5002000900948B7
:104E700008F074FF012804D169460748006817F05C
:104E8000F1FA044808F05EFF02480A3008F05AFFC1
:104E900008BD0000060504005400002070B504465B
:104EA0000D460AF015FA50200AF0BCF90AF0A0F9F4
:104EB00070BD10B50AF00CFA30200AF0B3F93820B2
:104EC0000AF0B0F90AF094F910BD00002DE9F041A4
:104ED0002DED0A8BF0EE408A074688463846B0EE44
:104EE000680AFEF709FC0646A12F06D0A22F0CD0B7
:104EF000A32F13D0A42F23D119E0701E474951F8D6
:104F0000304001EBC00045681DE0701E4349503140
:104F100051F8304001EBC000456814E0701E3F4975
:104F2000A03151F8304001EBC00045680BE0701E25
:104F30003A49F03151F8304001EBC000456802E0D9
:104F4000374C002500BF00BF3648844202D836489F
:104F5000844201D2324C00252046FBF76EFB41EC27
:104F60001C0B9FED320B53EC102BFBF7E6FA41ECD8
:104F70001A0B18EE900AFBF7A5FB41EC1B0B53EC48
:104F80001A2BFBF768FA41EC190BFBF7DFFB08EE75
:104F9000100A05F00040F0B125F00040FBF74DFB92
:104FA00041EC1C0B9FED230B53EC102BFBF7C5FAC8
:104FB00041EC1A0B18EE100AFBF784FB41EC1B0BBB
:104FC00053EC1A2BFBF741FA41EC190BFBF7BEFB34
:104FD00008EE100A1CE02846FBF72FFB41EC1C0BE7
:104FE0009FED140B53EC102BFBF7A7FA41EC1A0BB7
:104FF00018EE100AFBF766FB41EC1B0B53EC1A2B67
:10500000FBF782F941EC190BFBF7A0FB08EE100A45
:10501000B0EE480ABDEC0A8BBDE8F081B465002013
:1050200040420F0060E3160060AE0A00000000007E
:1050300080842E410000000000408F4070B533484E
:10504000C08F324908800846B0F8400048800846C2
:1050500000684008086008460068B0F5167F03D96C
:10506000002000F055F870BD28480068401E274910
:10507000243131F8100045F65D61884220D1234883
:105080000068801E2149243131F8100045F65A414C
:10509000884215D11D480068011F1C482430FFF7C5
:1050A000CFFB054619480068001F1849243131F824
:1050B000102016480068C01E31F8100002EB0046B0
:1050C000B54217D100201149A1F8BC05A1F8BA05D5
:1050D00000240AE0A01C0D49243131F810100B48BF
:1050E000103020F81410601C84B20A2CF2DB01F09E
:1050F0003FFE02E0002000F00BF84FF496610348F9
:105100002430FBF7E0F800BFADE70000E45F0020CB
:10511000F0B58FB0074600244BF6AA322146641C36
:1051200001A820F811204DF6CC522146641C20F82D
:10513000112000250AE0364830F815202046611C71
:105140008CB201A921F81020681C85B20A2DF2DB6F
:1051500000222046611C8CB201A921F810204CF2DB
:10516000A8022046611C8CB201A921F81020294810
:1051700000782146621C94B201AA22F8110041F283
:1051800044122046611C8CB201A921F810202E2265
:105190002046611C8CB201A921F810200022204673
:1051A000611C8CB201A921F810202046611C8CB230
:1051B00001A921F81070214601A8FFF741FB06461E
:1051C0002046611C8CB201A921F81060320C2046E7
:1051D000611C8CB201A921F8102045F65A422046E4
:1051E000611C8CB201A921F8102045F65D622046B1
:1051F000611C8CB201A921F810200020620001235B
:105200000090054800680DF0AFFB0FB0F0BD000046
:10521000F45F002060000020440000202DE9F043EE
:1052200097B005460F4600244BF6AA322146641C6F
:1052300003A820F811204DF6CC522146641C20F81A
:10524000112000260AE05C4830F816202046611C38
:105250008CB203A921F81020701C86B20A2EF2DB52
:1052600000222046611C8CB203A921F810204CF2C8
:10527000A8022046611C8CB203A921F810204F48D7
:10528000007840F4F6422046611C8CB203A921F854
:10529000102043F288322046611C8CB203A921F809
:1052A0001020680000EB44000C300290BDF808208C
:1052B0002046611C8CB203A921F81020BDF80A20F9
:1052C0002046611C8CB203A921F81020214603A8B6
:1052D000FFF7B6FA804600206200012303A9009080
:1052E000374800680DF040FB002D41D040F2B4502B
:1052F000854214D800206A000123394600903048C6
:1053000000680DF031FBB5F57A7F05D229463846A5
:10531000FFF796FA80442BE04FF0000828E0A946FA
:10532000002611E00020009040F2B450704307EBDB
:105330004001012340F66832214800680DF014FB5B
:10534000A9F2B459701C86B240F2B4508145E9D834
:105350000020009007EB4500A0EB49014FEA49020D
:105360000123174800680DF0FFFA4FF0000800BF56
:1053700000242146641C03A820F811804FEA18423B
:105380002146641C20F8112045F65A422146641C2F
:1053900020F8112045F65D622146641C20F811209A
:1053A00000206200012303A90090054800680DF069
:1053B000DBFA17B0BDE8F083F45F00206000002046
:1053C000440000202DE9F04104460D4616461F46D4
:1053D0002A460221044815F0B6FE2246032102485F
:1053E00015F0B1FEBDE8F0810004004070B5044640
:1053F0000025072C19D2DFE804F00406090C0F126F
:105400001500002512E042F210750FE044F6206509
:105410000CE047F2305509E049F6404506E04CF211
:10542000503503E04EF6602500E000BF00BF2A467D
:105430000121044815F087FE2A460021014815F095
:1054400082FE70BD000400402DE9F0412DED0A8B75
:10545000F0EE408A07463846B0EE680AFEF74CF98F
:105460000646D12F02D0D22F10D107E0701E3C4942
:1054700051F8304001EBC00045680AE0F01C3849A3
:1054800051F8304001EBC000456802E0354C002582
:1054900000BF00BF3448844202D83448844201D25D
:1054A000304C002500EE104AB8EE400A28EE800A83
:1054B00010EE101A0846FBF705F941EC190B9FEDA9
:1054C0002C0B53EC102BFBF738F841EC1A0BFBF7C5
:1054D0003DF908EE100A05F00040F0B125F000405B
:1054E000FBF7ABF841EC1C0B9FED230B53EC102B9F
:1054F000FBF723F841EC1A0B18EE100AFBF7E2F861
:1055000041EC1B0B53EC1A2BFAF79FFF41EC190BE4
:10551000FBF71CF908EE100A1CE02846FBF78DF893
:1055200041EC1C0B9FED140B53EC102BFBF705F813
:1055300041EC1A0B18EE100AFBF7C4F841EC1B0BF8
:1055400053EC1A2BFAF7E0FE41EC190BFBF7FEF8CF
:1055500008EE100AB0EE480ABDEC0A8BBDE8F081F7
:105560007469002040420F0060E3160060AE0A003C
:105570000000000080842E410000000000408F40A9
:105580002DE9F0412DED0A8BF0EE408A0746884662
:105590003846B0EE680AFEF7AFF80446A7F1C1003E
:1055A000062839D2DFE800F0030B141D262F601EF9
:1055B0004E4951F8305001EBC00046682FE0601EA4
:1055C0004A49283151F8305001EBC000466826E0C6
:1055D000601E4649503151F8305001EBC00046681A
:1055E0001DE0601E4149783151F8305001EBC00098
:1055F000466814E0601E3D49A03151F8305001EB7F
:10560000C00046680BE0601E3849F03151F8305058
:1056100001EBC000466802E0354D002600BF00BF28
:105620003448854202D83448854201D2304D0026A4
:1056300000EE105AB8EE400A28EE800A10EE101A5A
:105640000846FBF73FF841EC1A0B9FED2C0B53EC8F
:10565000102BFAF772FF41EC190BFBF777F808EE05
:10566000100A06F00040F0B126F00040FAF7E5FF1E
:1056700041EC1C0B9FED230B53EC102BFAF75DFF55
:1056800041EC1A0B18EE100AFBF71CF841EC1B0B4F
:1056900053EC1A2BFAF7D9FE41EC190BFBF756F82D
:1056A00008EE100A1CE03046FAF7C7FF41EC1C0B6D
:1056B0009FED140B53EC102BFAF73FFF41EC1A0B44
:1056C00018EE100AFAF7FEFF41EC1B0B53EC1A2BF5
:1056D000FAF71AFE41EC190BFBF738F808EE100A3E
:1056E000B0EE480ABDEC0A8BBDE8F08134680020BA
:1056F00040420F0060E3160060AE0A0000000000A8
:1057000080842E410000000000408F402DE9F041D0
:105710002DED0A8BF0EE408A074688463846B0EEFB
:10572000680AFDF7E9FF0546B12F06D0B22F0CD06D
:10573000B32F13D0B42F23D119E0681E454951F877
:10574000304001EBC00046681DE0681E4149503101
:1057500051F8304001EBC000466814E0681E3D4936
:10576000A03151F8304001EBC00046680BE0681EE4
:105770003849F03151F8304001EBC000466802E092
:10578000354C002600BF00BF3448844202D834485C
:10579000844201D2304C002600EE104AB8EE400A96
:1057A00028EE800A10EE101A0846FAF78BFF41EC3B
:1057B0001A0B9FED2C0B53EC102BFAF7BEFE41ECAD
:1057C000190BFAF7C3FF08EE100A06F00040F0B11B
:1057D00026F00040FAF731FF41EC1C0B9FED230B44
:1057E00053EC102BFAF7A9FE41EC1A0B18EE100A35
:1057F000FAF768FF41EC1B0B53EC1A2BFAF725FE66
:1058000041EC190BFAF7A2FF08EE100A1CE0304633
:10581000FAF713FF41EC1C0B9FED140B53EC102B0C
:10582000FAF78BFE41EC1A0B18EE100AFAF74AFF52
:1058300041EC1B0B53EC1A2BFAF766FD41EC190BEC
:10584000FAF784FF08EE100AB0EE480ABDEC0A8BA6
:10585000BDE8F081F466002040420F0060E31600CE
:1058600060AE0A000000000080842E4100000000AD
:1058700000408F402DE9F041064600240EBB00BFDA
:1058800000202949087008460578641C022015F09C
:10589000CFFFC82C00D912E0002DF1D100BF0020AD
:1058A00021494031087008460578641C022015F033
:1058B000BFFFC82C00D902E0002DF0D100BFBDE829
:1058C000F081092E16D2184840300778701E012149
:1058D00081408F4300BF144940310F70084605785E
:1058E000641C022015F0A4FFC82C00D9E7E7BD42D4
:1058F000F1D117E00D2E15D20B480778A6F109005B
:10590000012181408F4300BF07490F700846057889
:10591000641C022015F08CFFC82C00D9CFE7BD42D3
:10592000F2D100BF00BFCAE7400400602DE9F0419A
:105930000646002446BB00BF0F20314908701420E2
:1059400015F0AFFD2E480578641C022015F070FF9D
:10595000C82C00D916E00F2DEED100BFFF2028493A
:1059600040310870142015F09CFD25484030057822
:10597000641C022015F05CFFC82C00D902E0FF2D4A
:10598000ECD100BFBDE8F081092E1BD21C4840308D
:105990000778701E012101FA00F0074300BF184983
:1059A00040310F70142015F07CFD1548403005780B
:1059B000641C022015F03CFFC82C00D9E2E7BD4270
:1059C000EDD11BE00D2E19D20D480778A6F1090084
:1059D000012101FA00F0074300BF09490F701420AC
:1059E00015F05FFD06480578641C022015F020FFC5
:1059F000C82C00D9C6E7BD42EFD100BF00BFC1E748
:105A0000400400602DE9FC5F05462E784FF0000849
:105A1000C1460024686808B9BDE8FC9FA4496868CD
:105A2000B1FBF0F0019095ED020AF7EE000AB4EE3A
:105A3000E00AF1EE10FA06DC95ED020AB5EEC00AB6
:105A4000F1EE10FA00D2E7E79DED010AB8EE400A48
:105A5000D5ED020A20EE200ABCEEC00A8DED000A48
:105A6000E86848B1E868032800D9D5E74FF05D0839
:105A70004FF03D09A88986B200BF9DF8061006EBDD
:105A8000460040304044800100F1C04001701420C5
:105A900015F007FD06EB460040304044800100F160
:105AA000C0400778641C022015F0C2FEC82C00D943
:105AB000FCE09DF80600B842DFD100BF9DF805105C
:105AC00006EB460040304044401C800100F1C040DD
:105AD0000170142015F0E5FC06EB46004030404410
